:020000040800F2
:100000000020002059050008A5050008A5050008E6
:1000100000000000000000000000000000000000E0
:10002000000000000000000000000000A50500081E
:100030000000000000000000A5050008A50500085C
:10004000A5050008A5050008A5050008A5050008E8
:10005000A5050008A5050008A5050008A5050008D8
:10006000A5050008A5050008A5050008A5050008C8
:10007000A5050008A505000800000000A50500086A
:1000800000000000A50500080000000000000000BE
:10009000A505000800000000A5050008A50500084A
:1000A000A5050008A5050008A5050008A505000888
:1000B000A5050008A5050008A5050008A505000878
:1000C00010B5064C2378002B07D1054B002B02D02E
:1000D000044800E000BF0123237010BD3C01002054
:1000E00000000000104A0008084B10B5002B03D098
:1000F0000749084800E000BF07480368002B00D10B
:1001000010BD064B002BFBD09847F9E7000000001C
:1001100040010020104A00083801002000000000C3
:10012000164B002B00D1144B9D46402292029A1A86
:10013000924600218B460F461348144A121A03F0C8
:1001400093FC0F4B002B00D098470E4B002B00D098
:1001500098470020002104000D000D48002802D01F
:100160000C4800E000BF03F045FC2000290000F02F
:10017000BBF903F08DFAC046000008000020002003
:1001800000000000DF0400083C010020A003002064
:10019000000000000000000070B580250B4A2D050E
:1001A00094689668231CAE420BD1002380251E590B
:1001B000AD055D1904332E60C02BF7D180239B055C
:1001C000936010308000C15070BDC04600ED00E06B
:1001D0000121F8B5284B294C5D6A186923601A1C67
:1001E00008420AD0DB680B4207D0022324495B4255
:1001F00013610B8801339BB20B80116902221E4BE5
:1002000011421ED0D96811421BD0053A1D4E1A6109
:100210003388002B06D0308880B201F0B7FA002373
:1002200033800EE0184F3B68002B08D01748ADB262
:1002300001F0ACFA35803B68013B3B6001E001F026
:100240003BFC042223681969114213D0D96811427A
:1002500010D0093A0E4E1A615D6A0E4A3368EB1AE5
:10026000934207D900F0B0F9FA2223689200AA1845
:100270009A633560F8BDC04600080140D8020020EE
:10028000B802002078020020BC020020FFFF00001E
:1002900058010020E703000070B50425214B00261B
:1002A0005A6B2A435A635A6A2A435A625A6AAA43C1
:1002B0005A6201F01DF81C4C1C4B1D4923600123A0
:1002C0005B42E3601B4B186801F046FD013860603B
:1002D000201C2661A66000F0D3FD311C201C00F01C
:1002E000F6FD291C201C00F0F2FD22681249536A19
:1002F00014200B60FA2189005B1893630F49FFF704
:100300004BFF802201210E4B52031A602368201CF0
:10031000DA680A43DA60DA681543DD6000F0CBFD85
:10032000301C70BD00100240D802002000080140BF
:1003300040420F00C400002058010020D1010008F5
:1003400000E100E008B501F0E9FA962001F0D4FBE5
:10035000962001F0D1FBF8E770B5051C0C1CA0B08D
:1003600001F0DCFA291C6846221C03F0A7FC051EDC
:1003700003DC01F001FB20B070BD0A4B0A4E1B6884
:10038000002B04D1301C0221032201F039F9002492
:100390006B46301C195D013401F0ECF9AC42F7D129
:1003A000E7E7C04674020020800300200FB407B5C1
:1003B00004A901C90191FFF7CFFF03B008BC04B045
:1003C000184708B500F094FF08BD000008B5054BBC
:1003D0001B68002B04D104480221032201F010F90C
:1003E00008BDC046740200208003002008B5031C2D
:1003F0000020022B0DDD0749033B9B005A58585043
:10040000824204D01368101C5B68984701E0012009
:10041000404208BD5C01002070B50C1C151C022870
:1004200010DC0F4B1B68002B01D1FFF7CFFF6619C3
:10043000B44205D021780B4801F09CF90134F7E76C
:10044000281C0BE00338084B8000C058002803D05C
:1004500003681B68984701E00120404270BDC04618
:1004600074020020800300205C01002010B50C1CE9
:1004700002280BDC0C4B1B68002B01D1FFF7A6FFF9
:100480000A4801F061F9207001200BE00338084BA5
:100490008000C058002803D003689B68984701E09B
:1004A0000120404210BDC04674020020800300209D
:1004B0005C01002008B5031C0020022B0BDD033B70
:1004C00005489B001858002803D003681B6998470B
:1004D00001E00120404208BD5C010020704708B5E2
:1004E000FFF7FCFF08BD704708B5FFF76AFFFFF78D
:1004F000FAFF01F01BF808BD074A13681818EFF35C
:100500000881884205D30C220120044B40421A6026
:1005100001E01060181C7047C00000209C03002000
:1005200038B5074C051C2368986803F079F92368EF
:10053000D86803F075F9002D01D0FFF703FFFEE73F
:10054000280100207047704708B5FFF7FBFF08BD82
:1005500008B5FFF7F8FF08BD0C488546002103E009
:100560000B4B5B58435004310A480B4B42189A42DC
:10057000F6D30A4A02E0002313600432084B9A4281
:10058000F9D300F093FFFFF7CBFDFEE7002000203A
:100590001C4A0008C00000203C0100203C01002053
:1005A000A0030020FEE770470221064A08B5136841
:1005B00003208B431360FFF76FFEFFF7F4FF00206B
:1005C00008BDC04600200240024A13680133136090
:1005D0007047C0465C020020014B18687047C04657
:1005E0005C020020F0B50B6885B0029300230191F6
:1005F000029ADA4000D19BE001229A40029C14400A
:10060000A44600D192E0019A54681022251C95431B
:100610002A1C013D022A0FD107250F271D40AD00DE
:10062000AF40DA0892008218166A0199BE430F693A
:10063000AF403E43166201E0012D12D803265D0053
:10064000AE4082680199B243CE68AE4001259D401C
:10065000324382604268AA43E506ED0F9D402A437B
:1006600042600326351C5F00BD40ED4302682A400E
:10067000111C221C3240BA400A430260C268154075
:10068000019A9268BA401543C560E2004ED51F1C1E
:100690000121284D37406A6B0A43B9000F278F406C
:1006A0006A63254A9D08AD00AD18AA68BA43A02721
:1006B0000392FF050022B84211D0204F0132B84208
:1006C0000DD01F4F0132B84209D0321C1D4EB0422E
:1006D00005D01D4A8218574257410626F21B8A4010
:1006E000039966460A436146AA60184ACD431768D3
:1006F0003E43E10301D43E1C2E4016606646576817
:100700003E43A10301D43E1C2E40566066469768C6
:100710003E43E10201D43E1C2E4067469660D668F7
:100720003743A10201D42E40371CD76001335FE765
:1007300005B0F0BD00100240000001400004005070
:1007400000080050000C005000E4FFAF000401401E
:10075000F0B5036885B0041CDB0703D423689B074E
:1007600057D49DE00C23BE4DEA681A40082A08D0F1
:100770008020EA68400213400C2B0AD1EB68034248
:1007800007D02B689B03E9D56368002BE6D10120D5
:100790000DE2802261685202814203D12B6803433B
:1007A0002B601DE0A020AF4BC00281420BD1296815
:1007B0000B4080212B602B68C9020B432B602B68F8
:1007C0001A432A600CE0286803402B602B681A400B
:1007D0000392039B2A68A44B13402B6000290CD082
:1007E000FFF7FAFE061C2B689B03B7D4FFF7F4FE55
:1007F000801BC828F7D90320D9E1FFF7EDFE061CBE
:100800002B689B03AAD5FFF7E7FE801BC828F7D902
:10081000F1E70C23924DEA681A40042A06D0EA68F0
:1008200013400C2B10D1EB68DB030DD42B685B0756
:1008300002D5E368012BAAD122696B6811028B4AA9
:1008400013400B436B602BE0E3680921002B18D0A9
:100850002A688A4313432B60FFF7BEFE061C2B68F1
:100860007F485B0705D4FFF7B7FE801B0228F6D947
:10087000C1E72269436811027C4A13400B4343607D
:100880000EE02B688B432B60FFF7A6FE061C2B683F
:100890005B0705D5FFF7A0FE801B0228F7D9AAE762
:1008A0002368DB064FD50C236D4DEA681A4217D139
:1008B0002B689B0503D5E369002B00D167E76A68C5
:1008C0006B4B03201340626A13436B606B68226AB0
:1008D0001B0212061B0A13436B60FFF7DDFC32E0BC
:1008E000E369002B1FD080222B68520013432B603A
:1008F000FFF772FE061C2B68594A9B0505D4FFF7CB
:100900006BFE801B0228F6D975E75168584B0B40E7
:10091000616A0B4353605368216A1B0209061B0A74
:100920000B4353600FE02A68524B13402B60FFF7D4
:1009300053FE061C2B689B0505D5FFF74DFE801B5B
:100940000228F7D957E723681B0703D423689B06BF
:1009500023D438E063690122414D002B0ED02B6D6A
:1009600013432B65FFF738FE061C2B6D9B07EDD458
:10097000FFF732FE801B0228F7D93CE72B6D93432B
:100980002B65FFF729FE061C2B6D9B07DED5FFF7B5
:1009900023FE801B0228F7D92DE7A2690121304DE3
:1009A000354B002A19D0AA680A43AA606A6B114322
:1009B00069631A6A31490A431A62FFF70DFE061C81
:1009C000AB689B0703D523685B0719D499E0FFF751
:1009D00003FE801B0228F3D90DE7AA688A43AA60A8
:1009E000196A274A0A401A62FFF7F6FD061CAB682F
:1009F0009B07E8D5FFF7F0FD801B0228F7D9FAE640
:100A000080220021164D5205AB6B0091134204D198
:100A1000AB6B1343AB630123009380220021194E7B
:100A2000520033680191134210D13368134333608D
:100A3000FFF7D2FD071C3368DB0505D4FFF7CCFDBB
:100A4000C01B6428F7D9D6E6012301938021A26850
:100A500049008A4218D12B6D1A432A659AE0C04694
:100A600000100240FFFFFEFFFFFFFBFFFFE0FFFF64
:100A7000FF1FFFFFFFFEFFFF0000014001200000FD
:100A8000FEDFFFFF007000404A4B002A0AD12A6DAA
:100A900013402B652A6D484B13402B65FFF79CFDD7
:100AA000071C1DE0A020C00082420AD12A6D13401D
:100AB00080222B652B6DD2001A432A652B6D0B43C8
:100AC00005E02A6D13402B652A6D3B4B13402B65C7
:100AD00060E0FFF781FD394BC01B984200D98AE6E0
:100AE0002B6D9B05F5D4019B012B03D13268314B53
:100AF00013403360009B012B03D1AA6B304B134092
:100B0000AB63A26A002A01D1002050E00C232D4DD6
:100B10000120E9680B400C2B49D02B4B022A2AD12B
:100B20002A6813402B60FFF757FD061C2B682549E8
:100B30009B0105D5FFF750FD801B0228F6D95AE628
:100B4000226B606BCB681043E26A10431F4A13406C
:100B500080220343CB600B68520413430B60FFF702
:100B60003BFD041C2B689B01CED4FFF735FD001B19
:100B70000228F7D93FE62A6813402B60FFF72CFDC7
:100B8000041C2B689B01BFD5FFF726FD001B022824
:100B9000F7D930E6FFF720FD071C2B6D9B05A2D48B
:100BA000FFF71AFD054BC01B9842F6D923E605B0A6
:100BB000F0BDC046FFFEFFFFFFFBFFFF88130000F4
:100BC000FFFFFFEF00100240FFFFFFFEFFFF02FFED
:100BD0000123F7B54D4E32681A4091420AD8026897
:100BE000930711D5F0254A4CE368AB4385682B4346
:100BF000E36009E032689A430A4332603268134086
:100C00008B42ECD0012080E00191051CD30707D472
:100C10000123326801983D491A40904253D95CE063
:100C20003B4C43682268022B02D192030CD4E9E7C3
:100C3000002B02D1920507D4E4E7032B02D19201E5
:100C400002D4DFE75207DDD50321E2688A4313436C
:100C5000E360FFF7C1FC6B68071C022B0CD10C236F
:100C6000E2681340082BD3D0FFF7B6FC294BC01B1A
:100C70009842F4D9032048E0032B0BD10C23E268FF
:100C800013400C2BC4D0FFF7A7FC224BC01B98428B
:100C9000F4D9EFE7002B10D10C23E2681A42B7D049
:100CA000FFF79AFC1B4BC01B9842F5D9E2E7FFF710
:100CB00093FC184BC01B9842DCD80C23E26813400D
:100CC000042BF4D1A4E70A6801989A4302430A600E
:100CD0000A681340019A934294D12A68530706D5B3
:100CE0000B490D4BC8680340E8680343CB6013070A
:100CF00007D507482969C368084AC90013400B4350
:100D0000C3600320FFF7C8FA0020FEBD00200240A8
:100D10000010024088130000FFF8FFFFFFC7FFFF2D
:100D20000C211C4A08B55368D0681B0408405B0FAF
:100D300001F008F825252525072525252B2525251E
:100D40000C001368DB0622D4134821E0D368134853
:100D5000D1689B021B0FC05C0902D368890F013167
:100D6000DB0307D40B4B1B68DB0601D50C4B02E001
:100D7000094B00E00B4B584300F0EEFF08E0581C15
:100D800080231B028340181C02E0064800E0044850
:100D900008BDC046001002400024F40021440008B1
:100DA00000093D0000127A0008B5FFF7B9FF054BB6
:100DB000054ADB681B061B0FD35CD840034B186049
:100DC00008BDC04600100240F4430008C4000020E3
:100DD00008B5FFF7E9FF044B044ADB685B055B0FCE
:100DE000D35CD84008BDC04600100240F443000860
:100DF00008B5FFF7D9FF044B044ADB689B045B0F7F
:100E0000D35CD84008BDC04600100240F44300083F
:100E1000802210B50368D205904205D00F4CA04245
:100E200002D00F4CA0420BD17024A3434C68234343
:100E300090420DD0094A90420AD0094A904207D008
:100E400003608B68C3620B6883620123436110BD3A
:100E5000044A1340CA681343F2E7C0460008014041
:100E600000140140FFFCFFFF10B501248C408A40B4
:100E7000036AA3430362036A1A43026210BD704708
:100E800038B50123002814D0051C35352B78041CF7
:100E9000DBB2002B04D1021C34321370FFF7EFFFDA
:100EA0000223211D2B702068FFF7B2FF01232B7056
:100EB0000023181C38BD021C0223012100683532B2
:100EC000137003680B43036000201170704710B566
:100ED000041C01220068FFF7C7FF012122680020DF
:100EE00013680B43136010BD70470000F8B5041C75
:100EF0000568C269A16800692B6808436169644E8E
:100F00000843644910430B4003432B606968624BFC
:100F1000A0690B40E1680B436B60B54201D0236AC6
:100F20001843AB685D490B400343AB605C4B9D428B
:100F300005D15C4BD96C03230B405B490AE05B4B4A
:100F40009D420DD1574BD96C0C230B40043B082B11
:100F500023D85749C85C80231B029A4244D113E02E
:100F6000B5421AD1C02180204E4A0901D36C00013C
:100F70000B40834277D08B426DD08022D2009342C7
:100F800052D0FFF725FF51E0082823D800F0DAFE01
:100F9000090C0F22172222221B0080231B029A42D7
:100FA0002BD1FFF715FF0CE0FFF722FF09E03D4BC7
:100FB0001B68DB0601D53F4807E03F4805E0FFF727
:100FC000AFFE400001E080204002616800F0C4FEF6
:100FD00080B200E000200F23011C184099432268D2
:100FE00040100843D06051E008284FD800F0AAFE16
:100FF00005080B4E134E4E4E1600FFF7E9FE0FE0AC
:10100000FFF7F6FE0CE0274B1B68DB0601D52B48EB
:1010100006E02B4804E0FFF783FE01E08020000299
:10102000616800F099FE14E0FFF77AFE02F08EF995
:101030000022244B01F086FB061C60680F1C02F0A6
:1010400085F9021C0B1C301C391C01F065F800F0FE
:101050000FFFE8601AE0606802F078F9021C0B1CD0
:1010600000201949F1E71368DB0607D5606802F034
:101070006DF9021C0B1C00201449E6E7606802F0C1
:1010800065F9021C0B1C00201149DEE7F8BDC046C3
:1010900000480040F369FFEFFFCFFFFFFFF4FFFFC1
:1010A00000380140001002400D4400080044004098
:1010B0000444000800127A000048E80100093D00DD
:1010C0000024F40000007040000060418084CE41A4
:1010D0008084EE41436A30B5DA0706D50168284AB4
:1010E0004C682240846A22434A609A0706D5016808
:1010F000244A4C682240C46A22434A605A0706D5F3
:101100000168214A4C682240046B22434A601A0756
:1011100006D501681D4A4C682240446B22434A6050
:10112000DA0606D501681A4A8C682240846B22438D
:101130008A609A0606D50168164A8C682240C46BFC
:1011400022438A605A0610D50168134A4D68046C20
:101150002A4022434A6080225203944205D14C68BF
:101160000E4A2240446C22434A601B0606D50168A1
:101170000B4B4A681340826C13434B6030BDC04632
:10118000FFFFFDFFFFFFFEFFFFFFFBFFFF7FFFFFF6
:10119000FFEFFFFFFFDFFFFFFFFFEFFFFFFF9FFFFF
:1011A000FFFFF7FFF7B51D1C041C0E1C0192FFF793
:1011B00013FA019B071C002B36D12268D3693340F8
:1011C000B3420FD06B1CF9D0002D0FD0FFF704FAFB
:1011D000C01BA842F1D909E06B1C05D1D36933408B
:1011E000B342F9D0002021E0002D18D180212368DE
:1011F00003201A688A431A601A6860398A431A60A1
:1012000019680B4A0A4001211A609A688A439A6059
:10121000231C6933197000236834237006E0FFF73C
:10122000DBF9C01BA842E1D82268D7E7FEBDC04663
:10123000FFFEFFFF036810B51B68041C1B0704D4E6
:1012400023681B685B0713D509E08021002289030E
:101250000C4BFFF7A7FF0028F2D0032010E08021FD
:10126000201CC9030022074BFFF79CFF0028F4D184
:10127000231C0020683318700123E0666934237052
:1012800010BDC046F055000038B5041C0120002CEC
:101290002BD0251C69352B78DBB2002B05D1221C05
:1012A00068321370201CFFF71FFE02230121226801
:1012B0002B701368201C8B431360FFF717FE636AC3
:1012C000002B02D0201CFFF705FF2368074A59684E
:1012D000201C0A402A215A609A688A439A601A6838
:1012E00029390A431A60FFF7A5FF38BDFFB7FFFF92
:1012F00038B50C231B4C1C4DE068184000F022FD53
:101300001F1F1F1F071F1F1F091F1F1F0B00174B2A
:101310001DE0174B1BE0E368164AE1689B021B0FB8
:10132000D05C0902E368890F0131DB0301D40F4B64
:1013300000E00F4B584300F00FFD286008E08022CA
:10134000636812021B045B0F01339A40131C2B606D
:10135000E368094A1B061B0FD35C2A68DA402A603F
:1013600038BDC04600100240C40000200024F40034
:1013700000127A00214400081144000810B5214BE6
:1013800094B01A68520701D5002038E080219A6B8A
:1013900049050A439A631C4A1C4B11680B40802183
:1013A00009010B43136023230693002802D18023F5
:1013B0005B0201E0A023DB020793002309930233C1
:1013C000109380235B021193C0231B03129380238D
:1013D0000124DB0306A80C941393FFF7B9F9002846
:1013E000D2D10F230390019304900C3B0590211C54
:1013F00001A80293FFF7ECFB43425841C0B214B07E
:1014000010BDC0460010024000700040FFE7FFFF23
:1014100080211B4A4905936B30B50B439363194AEE
:10142000194B116895B00B40802109010B431360E3
:1014300023230693213B10938023DB021293802306
:1014400000240125DB0306A81393079409950C9546
:101450001194FFF77DF9031C201CA3420DD10F232B
:1014600001A80193291C0C3B029303940494059456
:10147000FFF7AEFB43425841C0B215B030BDC04685
:101480000010024000700040FFE7FFFF08B5012098
:10149000FFF774FF002808D1FFF770FF002804D180
:1014A000FFF7B6FF002800D1FEE708BD802210B587
:1014B000164C5200236813432360E268144B134018
:1014C000E3602268134B134001222360A368934317
:1014D000A3602268104B13402360E2680F4B134057
:1014E000E3600023802223610D4B12059A600D4AB0
:1014F0000D4B1A60FFF758F8FFF7C8FF0422636A24
:1015000013436362636A9343636210BD0010024039
:101510000C40FF88F6FFF6FEFFFFFBFFFFFF02FF18
:1015200000ED00E000127A00C400002010B5002396
:101530000F4CE356013304D135220E490E4800F01A
:10154000CBF9FE20E368626880051A6000F0C8FAF3
:101550000023E356013304D135220649064800F042
:10156000BBF92369626805481A6000F0B9FADEE742
:10157000600200202A44000898440008000040400F
:1015800010B5054C14220021200002F06DFA05214F
:10159000200000F040FA10BD6002002008B502688B
:1015A000154B1A6082685A60C2689A600269DA60F4
:1015B00042691A6100229A61DA61802212011A627C
:1015C00019228256013201D1082206E018228256E1
:1015D000013201D1042200E00C225A6110225A6229
:1015E0008022181C52019A63FFF74EFE002802D099
:1015F000024800F083F908BD10030020B044000841
:10160000F7B5041C0E1C081C3D49151C00F044FADB
:101610003C4F0090391C281C00F03EFA011C009839
:1016200000F01AFA364B206000930197431C04D156
:1016300035483649592200F04FF92368344A354F6E
:1016400093420ED18020344BC0015A6A3349024381
:101650005A625A6A114059625A6B02435A63002314
:1016600021E0BB420ED180202B4B80029A6A2C498C
:1016700002439A629A6A114099629A6B02439A6392
:10168000012310E0274A93420ED18020224BC00252
:101690009A6A254902439A629A6A114099629A6B42
:1016A00002439A6302236360301C009900F0B8F98A
:1016B000281C019900F0B4F9731C03D0301C0121DF
:1016C00000F0F4FA6B1C03D0281C012100F0EEFAA4
:1016D00096239B01A36000232676E3602361636168
:1016E0006576201CFFF75AFF2368BB4207D1012211
:1016F0000E4B0F481A60211C1B3202F0ACF9F7BDEB
:1017000044470008E4460008C7440008E1440008D4
:10171000003801400044004000100240FFBFFFFFBE
:10172000FFFFFDFF00480040FFFFFBFF74020020A9
:10173000800300200368034AD86913608006C00F45
:101740007047C0461003002038B5041C0568201CF3
:10175000FFF7F0FF0028FAD0686AC0B238BD000079
:101760000368034AD86913600006C00F7047C0467B
:101770001003002070B5051C0C1C0668281CFFF720
:10178000EFFF0028FAD0E4B2B46270BD0221044B2E
:10179000044A13605863DA680A43DA607047C04647
:1017A000000801407C02002008B5044B186800289E
:1017B00003D101221A60FEF76FFD08BDB4020020BC
:1017C0001A4B13B51B68002B01D1FFF7EDFF184B27
:1017D000186803699B0501D5164B03616946164AD3
:1017E000023113889BB20B800369DB0703D50B889A
:1017F00001339BB20B806C46104B06345B6A9BB284
:101800002380128801AB92B21A800269D20703D5F5
:101810001A88013292B21A8009881A889142D8D166
:10182000188823880004184316BDC046B40200205F
:101830007C020020FFFDFFFFB802002000080140ED
:1018400038B5041CFFF7BCFF124B201A5B6A9DB22F
:10185000002802DC00F030F91AE00F4A0F4C0114A6
:1018600080B21160208022880D489BB2C31A9A4230
:1018700007DC2088281880B2FFF788FF0023238028
:1018800006E0FFF783FF20880130281880B220800F
:1018900038BDC04600080140BC020020780200208C
:1018A000FFFF00000221034B034A1360DA688A43FA
:1018B000DA607047000801407C020020044B054AB2
:1018C00013601A69920702D5032252421A617047C7
:1018D000000801407C02002070B5061C0D1C141C81
:1018E00000F01CF8311C2A1C0348231CFEF75EFD87
:1018F000FEF728FD70BDC046424500080FB407B58D
:1019000004A901C90191FEF727FD012001F0C0FEE5
:10191000EFF31083012098437047000038B5FFF7BC
:10192000F7FF01256840C5B272B60E4C2368002B44
:1019300001D10D4B1D702368013304D10B480C49B4
:101940003222FFF7C9FF2368002B06D0002D04D1F7
:10195000084807493622FFF7BFFF23680133236099
:1019600038BDC046C0020020C402002073450008F4
:1019700099450008DE45000810B50C4C2368002B83
:1019800013D0FFF7C5FF002804D0094809494722B2
:10199000FFF7A2FF2368013B23602368002B04D1DB
:1019A000054B1B78002B00D162B610BDC002002091
:1019B000DE45000899450008C402002038B5002320
:1019C000C356041C0D1C013304D1064806493522B8
:1019D000FFF782FF6368002D01D0E26800E0226912
:1019E000136038BD98440008F245000870B50D1C1E
:1019F000041C161C00F0A0F86B1C0BD0201C311C22
:101A0000FFF7DCFF201C012100F0B4F8201C0021AE
:101A100000F0A9F870BD08B50022FFF7E7FF08BD88
:101A200010B5041C431C13D00023CB565A1C0CD0F9
:101A3000A34208D1201C896800F00AF9201C00216B
:101A400000F034F904E00C31EEE70248FFF756FFEE
:101A500010BDC0466546000808B5031E8B420AD07B
:101A60000B1C421C07D0031C4A1C04D00348FFF780
:101A700045FF01235B42181C08BDC046764600089E
:101A80000023CB565A1C05D0834201D1486802E09E
:101A90000C31F5E7181C704710B5041C431C07D027
:101AA000FFF7EEFF041C431C02D10248FFF726FF9C
:101AB000201C10BD8746000808B5024800F01EF93A
:101AC00008BDC046DC46000838B5041CFFF778FEA8
:101AD000051CFFF775FE401BA042FAD338BD00007D
:101AE00008B5044900F0E2F900F0F4FAFFF7ECFF62
:101AF00008BDC0460024744908B5FA239B0058432A
:101B0000FFF7E2FF08BD000010B5041C431C04D120
:101B1000074808492722FFF7DFFE201C002100F0BC
:101B200097F80F20012320408340181C10BDC046A9
:101B30009D440008A447000870B5041C0E1C2170C9
:101B40004B1C0FD00806000F00F02EF8051C301CAF
:101B5000FFF7DAFF2B1C1033A360283508336060D1
:101B6000E360256170BD08B5007840B200F09EF8D2
:101B700008BD000038B50023C356051C0C1C0133FA
:101B800004D1074807494722FFF7A6FE0020211C81
:101B90002856012C00D0002100F05AF838BDC0466C
:101BA00098440008A44700087FB507283DD800F0F6
:101BB000C9F804101B263C3C3C310123A0201E4ADE
:101BC000C005D16A1943D162D26A13400193019BC7
:101BD0002FE00223184A1948D16A1943D162D26A08
:101BE00013400293029B24E00423134A1448D16A51
:101BF0001943D162D26A13400393039B19E008236F
:101C00000D4A1048D16A1943D162D26A1340049335
:101C1000049B0EE08023084A0B48D16A1943D16225
:101C2000D26A13400593059B03E00848FFF766FE60
:101C3000002007B000BDC046001002400004005064
:101C400000080050000C0050001C00500348000821
:101C500070B5061C88B00D1C431C04D110481149F6
:101C60006022FFF739FE0F2430092040FFF79CFF68
:101C700001232640B34003932B1C0B4A23409B00B7
:101C80009B5803A9019304936B065B0F05930323F1
:101C9000ED112C4006930794FEF7A4FC08B070BD2C
:101CA0009D440008244800088448000870B5061CBC
:101CB0000D1C431C04D10F480F498522FFF70CFE71
:101CC0000F20341C360904403040FFF76DFF02231B
:101CD0000021AB4249412B1C49420B4003216400C7
:101CE000A140A340C2688A43191CC260C268114364
:101CF000C16070BD9D4400082448000838B50368E1
:101D0000041CDB68984763685A682368002A02D17C
:101D10009B68984714E05B681568984763682D1ABC
:101D2000002D08DC5A68916859601B68002BEAD0C6
:101D300050689847E7E75A68216810680B69984728
:101D400038BD000002B4714649084900095C4900E9
:101D50008E4402BC7047C046002243088B4274D3B5
:101D600003098B425FD3030A8B4244D3030B8B429C
:101D700028D3030C8B420DD3FF22090212BA030CA5
:101D80008B4202D31212090265D0030B8B4219D386
:101D900000E0090AC30B8B4201D3CB03C01A5241A6
:101DA000830B8B4201D38B03C01A5241430B8B42EE
:101DB00001D34B03C01A5241030B8B4201D30B03D7
:101DC000C01A5241C30A8B4201D3CB02C01A5241FE
:101DD000830A8B4201D38B02C01A5241430A8B42C1
:101DE00001D34B02C01A5241030A8B4201D30B02AA
:101DF000C01A5241CDD2C3098B4201D3CB01C01AC4
:101E0000524183098B4201D38B01C01A52414309CD
:101E10008B4201D34B01C01A524103098B4201D3BB
:101E20000B01C01A5241C3088B4201D3CB00C01A28
:101E3000524183088B4201D38B00C01A52414308A0
:101E40008B4201D34B00C01A5241411A00D20146C5
:101E5000524110467047FFE701B5002000F006F838
:101E600002BDC0460029F7D076E770477047C046EC
:101E700070B500220C4B04000D0001F0D3FA0028CD
:101E800004D12000290001F02BFA70BD064B00227E
:101E90002000290000F0D0FE01F022FA80231B066A
:101EA0009C466044F1E7C0460000E041F0B557466B
:101EB0004E4645464300E0B446028846760A1F0E69
:101EC000C40F002F47D0FF2F25D0002380259A462E
:101ED0009946F600ED042E437F3F434642465D029D
:101EE000D20F5B006D0A1B0E904640D0FF2B39D0FD
:101EF00080220020ED00D20415437F3BFB184246B0
:101F00005746591C62408C4607430F2F5CD86F49D7
:101F1000BF00C9598F46002E45D108239A46063B7B
:101F20009946DAE7424602282DD0032800D1C3E0C3
:101F3000012800D0A2E0002500260240D4B276029B
:101F4000ED05760A2E43E407264330001CBC90467C
:101F50009946A246F0BD002E1AD104239A46033BAF
:101F60009946BAE72A00511E8A41901CC6E7012013
:101F7000002DC3D0280001F05FFA431F76309D404A
:101F800043420020BAE70124FF2514400026D6E78B
:101F9000300001F051FA431F9E4000237630474243
:101FA0009A46994699E70C239A46093B994694E745
:101FB00080260024F603FF25C1E735004846B2E736
:101FC000350022004846AEE72904090C0800370C0A
:101FD0003604360C2C0C7943704367437443060C6B
:101FE00064183619B14203D9802149028846474412
:101FF0000004000C310409188D01681E8541890E0A
:102000002943350CED19AD010D43290104D50123F8
:1020100069081D4063460D4319007F31002925DD05
:10202000680704D00F202840042800D00435280178
:1020300003D5274980330D401900FE29A3DC012474
:10204000AD016E0A1440CDB279E78020C00306428C
:1020500007D0054205D128434602760A4446FF25AB
:102060006DE706437602760AFF2568E70124611AC8
:102070001B2905DD14400025002660E76346CBE7F9
:102080002E002023CE40591A8D406B1E9D412E43B9
:10209000730704D00F233340042B00D004367301A0
:1020A00004D5012401251440002648E70124B60187
:1020B000760A1440002542E780260124F6032E43C9
:1020C0007602760A1440FF2539E7C046B848000872
:1020D000FFFFFFF74302590A4300C20F1B0E002007
:1020E0007E2B0EDD9D2B0DDC802000040143952B03
:1020F0000BDC9620C31AD9400B005842002A00D1AD
:1021000018007047034BD018FBE7963B99400B0033
:10211000F3E7C046FFFFFF7FF0B556464D46444605
:102120005F46F0B41D000E034C00CB0F87B00700D4
:1021300092468146360B640D98466AD06D4B9C42A0
:1021400035D08022430F12041343F6001E43C30010
:102150009946694B00279C460023644402932B0355
:1021600068001B0BED0F51469B46400D009500D1BA
:1021700078E0604B98426CD05B46DA004B0F8021D0
:1021800009040B4313439B465346D9005A4B9C46C4
:10219000002360444246201A6A40924601901F4341
:1021A0000F2F00D9B0E05548BF00C05987463743CC
:1021B00000D088E0002399460233082700260293C6
:1021C000CDE74346B34649460093029B009A9246A8
:1021D000022B00D0BFE10021534601220026894690
:1021E0001A40444B002136030C0D2405360B2643C0
:1021F000434C1B0526401E437600D2077608164343
:102200004846310007B03CBC90469946A246AB46D2
:10221000F0BD330003434FD0002E00D1BCE13000AD
:1022200001F00AF903000B3B1C2B00DDADE11D2280
:102230000100D31A08393A008F408E40DA40B9467F
:102240001643304B00279C460023604444420293CF
:1022500085E753465A4613432CD1002300219B4661
:10226000023397E70B4320D05B46002B00D19EE161
:10227000584601F0E1F803000B3B1C2B00DD8FE119
:1022800002005946083A91408B461D21CB1A51460F
:10229000D9400B0059460B4351469B469140194B80
:1022A0009C4660444042002374E7002300219B4683
:1022B00001336FE703236DE70023994601330427B9
:1022C000002602934BE703230C27029347E70122E2
:1022D000D51A382D00DCB0E153461A400021002306
:1022E000002689467EE70023802699460022360391
:1022F000004B77E7FF07000001FCFFFFF8480008EC
:10230000FFFF0F80F30300005E4500D972E100D1AA
:102310006DE1019B4D46013B019300233400029384
:102320005B461E020B0E1E430B020393330C9946B1
:1023300033041B0C494620000093FFF70DFD009B62
:10234000370043430600494620009846FFF78AFDC0
:102350002C0C09040C43A04509D9E419731EA742AB
:1023600000D95CE1A04500D859E1023EE41943469A
:10237000E41A49462000FFF7EFFC0300009A80466C
:102380005343494620009B46FFF76CFD2A0409048D
:10239000120C0A4393450DD94346D219013B97428B
:1023A00000D93AE1934500D837E102235B429C46CD
:1023B000D219E0445B46D21A4346360433439B4667
:1023C0000399180C0B0C1D00059309045B46090CBE
:1023D0000C001B041B0C4443049159436B4368439A
:1023E0001B190D0CEB189C4203D980246402A446EF
:1023F00060441C0C09041B04090C20185D1882425F
:1024000000D2DEE000D1D7E0161A029B9C465D1B8D
:10241000AC459B415B42F61AB74200D106E1494602
:102420003000FFF799FC009B04004343494630000D
:102430009846FFF717FD2E0C09040E43B04509D945
:10244000F619631EB74200D9F3E0B04500D8F0E0BA
:10245000023CF6194346F31A494618000293FFF767
:102460007BFC009B06004343494602989846FFF7D1
:10247000F9FC2D0409042D0C0D43A84509D9ED19CB
:10248000731EAF4200D9D6E0A84500D8D3E0023E83
:10249000ED192404210043463143049E059A30007F
:1024A000ED1A0B040C0C1B0C584366435343544366
:1024B0009A19030C9B189E4203D98022520294461B
:1024C00064441A0C00041B04000C14191B18A542C8
:1024D00050D34DD001231943964A019B944663443F
:1024E000002B00DCF3E64A0709D00F220A40042A39
:1024F00005D00A1D8A42894149428B4411005A463F
:10250000D20108D55A468C4B1A4093468022D200FD
:102510009446019B6344894A934200DD5BE65A4638
:10252000C908500708435602514601225B058146FF
:10253000360B5B0D0A4055E680231B031E4211D06B
:102540005A461A420ED15E461E433603360B2A0007
:1025500089467B4B46E6032B00D1E1E0012BBBD142
:102560001A40BBE61E433603360B4246744B39E62F
:10257000002BB1D07D194A1EAF4252D91100A5429D
:10258000A8D1039A9A42A5D1A6E703003E00283BB2
:102590009E400023994654E600F04EFF203041E66D
:1025A00003005246283B9A400021934677E6504666
:1025B00000F042FF20305EE6029B0026AB4200D3D3
:1025C00023E7039E0299B44661448846B045B6416C
:1025D0005B467642F619B218013B0291974213D23C
:1025E00090424FD800D18EE0161A9B460DE78945E0
:1025F00000D28EE674084B46F60735005B081D4393
:102600004B46DB0702938BE69742EDD10399029C80
:10261000A142E5D93E1A9B46F7E69846CAE61E0057
:10262000A5E6AC423ED874D0110053E701214942DF
:1026300052E71C000EE71E002BE71F2D3CDC202379
:102640000A0058465B1B9840EA4099400243481EE6
:1026500081415E461143EE404B0709D00F230B40EA
:10266000042B05D00B00191D99429B415B42F618C3
:1026700033023CD55346012200211A400026012393
:102680008946AFE502235B429C46039CE344A44693
:10269000029B63449846A045B6417642F6190293E0
:1026A000B218B1E603988A1E41008142B6417642D3
:1026B000F619AD19039161E71F225242D31A5A4607
:1026C000DA401300202D29D040225846551BA8403F
:1026D0000143481E814107200B4318400026002873
:1026E00009D00F2200261A401900042ABBD10B0082
:1026F00070077602360BDB080343994601225346E6
:102700001A4000236EE502998D42BBD89B460026F5
:102710007BE603989842C5D3110032E70020D7E743
:1027200080265B4636031E433603360B009A8946E5
:10273000034B57E5FF030000FFFFFFFEFE0700000D
:10274000FF070000F0B55F4656464D464446F0B4DC
:102750000D0399464E002B0B87B00700924680462A
:102760009B46760DCC0F002E69D06D4B9E4235D026
:102770005B468022DD001204430F13432B439B462C
:10278000C3009846674B00279C460023664401938C
:102790004A4615035000D20F53462D0B400D91466B
:1027A00000D176E05E4A90426CD080225B0F12042A
:1027B00013435C4AED0094461D4353460022DB0060
:1027C000604449463618701C6140029017430F2F31
:1027D00000D9AFE05448BF00C759BF465B461F430E
:1027E00000D088E000239B469846023308270193D7
:1027F000CEE74946022A6AD0032A00D109E2012A1B
:1028000000D0BBE111400022002300259046CCB24D
:1028100000212D030A0D12052D0B1543434A1B05FC
:1028200015401D436D00E4076D082543404629000F
:1028300007B03CBC90469946A246AB46F0BD034368
:1028400052D05B46002B00D18AE1584600F0F4FDDF
:1028500003000B3B1C2B00DD7BE11D22D31A3A0049
:1028600001005D46DA4008398D4013008F402B434C
:102870009B46B8462E4B00279C46002360444642A8
:10288000019385E752462A432CD1002500230222DA
:1028900097E752462A4321D0002D00D154E1280069
:1028A00000F0CAFD03000B3B1C2B00DD46E11D219F
:1028B000CB1A51460200D9405346083A95409340FE
:1028C0000D431B4A944660444042002279E70124AC
:1028D00000220C40124B0025904699E7002500236A
:1028E00001226EE703226CE700239B4698460133E2
:1028F000042701934CE703230C27019348E70023A7
:102900008025984600242D03054B81E75D4643460C
:10291000019A6FE75D4643462100019A6AE7C04687
:10292000FF07000001FCFFFF38490008FFFF0F8090
:10293000F30300004246120C91461A0C944642469C
:1029400017044A461B041B0C5A43604690464A46ED
:1029500042431000039262461C003F0C7A437C43C2
:1029600042440192220C9246019A5244904506D963
:102970008246802040028046C24450460390100C9C
:10298000049048462404240C1204121905922A0CBF
:102990002D042D0C68432C00824648467C4350434E
:1029A0008146200C8046574357444744BA4503D9D3
:1029B000802040028046C144380C3F04B846484459
:1029C0002404240C01900498A044404404905846E8
:1029D000000C814658460404200C824607004846F5
:1029E0005F434C46434360466043644683465046DB
:1029F0004443380C8446E4186444A34203D980233A
:102A00005B029C46E34448463F04230C3F0C2404ED
:102A1000E419574668436F4384464D465046554334
:102A20004243380C814662444A445B44944503D98E
:102A3000802040028446654403983F0483460498FE
:102A40003F0C8446E344C345804140428246100423
:102A500084460198674484466744A344BC46A34522
:102A6000A4419946D44464428742BF41D445804141
:102A7000E144A04699459B417F424042C8440743F8
:102A8000120CBA18A045A4415F423B0064422343A4
:102A9000D71843467D19DB0D6D021D435B465A0274
:102AA000059B1A43531E9A415B46DB0D1A4343466E
:102AB0005B021343EA0107D501225C08134023435C
:102AC000EA07029E13436D08574AB218002A4BDDED
:102AD000580709D00F201840042805D0181D984227
:102AE0009B415B42ED180300E80104D54F4A1540B5
:102AF0008022D200B2184E48824200DDE7E601246F
:102B0000DB08680718436D02530580462D0B5B0DEB
:102B10000C407DE6802259461203114208D015422E
:102B200006D115432D0398462D0B4C46414B6FE6BD
:102B30005D4615432D032D0B3E4B69E603005546BC
:102B4000283B9D400023BCE6504600F075FC203039
:102B5000A8E60300283B9F400023BB46984689E631
:102B600000F06AFC203073E60124A61A382E07DD37
:102B700000220C4000230025904649E6029EA3E770
:102B80001F2E20DC20222C001800921BF0409440C5
:102B900093400443581E83411C43F540630709D00A
:102BA0000F232340042B05D023001C1D9C4292417F
:102BB0005242AD182B021FD5012400220C400123E4
:102BC0000025904624E61F202C004042821AD44063
:102BD000202E1CD04022961BB5402B43581E83410B
:102BE0000720234318400025002809D00F22002584
:102BF0001A401C00042AD8D1230068076D022D0B4F
:102C00000124DB08034398460C40002300E600251E
:102C1000E3E780220124120315432D0398462D0B70
:102C20000C40044BF4E5C046FF030000FFFFFFFE2D
:102C3000FE070000FF070000F0B557464E46454628
:102C4000E0B40E001100F20F9246C500420F1803C7
:102C500037037400400A4E0F7F0A3043CF4E1743AC
:102C60005A00640D520DDB0FC900B24200D1E5E0FD
:102C700001267340A61AB446534500D1AFE0002E9A
:102C800000DC0DE1002A3AD103000B4300D0E4E060
:102C90006B0709D00F232B40042B05D02B1DAB4213
:102CA000AD416D427F191D003B0200D488E0BB4B53
:102CB00001349C4200D110E13A00B94B51461A4010
:102CC00001235007ED08520264050543120B640D01
:102CD0000B400021280012030D0D120B64052D0579
:102CE00015436208AF4CDB072C40144364006408B2
:102CF0001C4321001CBC90469946A246F0BDA74B40
:102D00009C42C5D080231B0418436346382B00DD4A
:102D1000FDE01F2B00DD30E1624620239B1A0200FC
:102D20009A40664690460A009940F24046464B1E3D
:102D300099413243114363460200DA40691A8D42D9
:102D40009B410D00BA1A5B42D71A3B0235D57A0275
:102D5000530A98464346002B00D1C4E0404600F099
:102D60006BFB0300083B1F2B00DDC5E02022290080
:102D7000D21A4746D1409F400A009D403A439C42A8
:102D800000DDC0E01C1B631C1F2B00DDE4E02021E4
:102D900014002800C91AD8408C408D400443DA4002
:102DA000681E854117002543002471E742466346AB
:102DB0001A4300D14CE2674645466B0700D069E7ED
:102DC000012351467807ED08FA080B400543734983
:102DD0008C4238D012036405120B640D79E7002E83
:102DE00000DC9AE0002A47D06C4A944200D14FE7B9
:102DF0008022120410436246382A00DC08E10143B5
:102E0000481E81410022C9B24919D219A942BF41C5
:102E10000D007F42BF183A0200D442E15F4A0134FC
:102E2000944200D14EE101205D4A69083A402840B1
:102E30000843D507054357089A4629E706000E437D
:102E400000D017E714E72900114300D1F9E18021F0
:102E500009030A431203120B3BE701235B42984626
:102E6000C4446346002B72D1691A8D429B413F1ABC
:102E70005B42FF1A0D0068E702000A4300D107E732
:102E8000012252429046C4446246002A00D0E6E045
:102E90006918A942B6413F187642F7190D00BAE702
:102EA000002E00D080E0621C5205520D012A00DC89
:102EB000F9E06A1A91464D45B6413A1A7642921B9C
:102EC0009046120200D499E04D1BA9428941C71BCC
:102ED00049427A1A90469A463CE752460123002519
:102EE00013400022F5E6280000F0A6FA2030030087
:102EF000083B1F2B00DC39E72A00283882400025D8
:102F00009C4200DC3EE7264FE41A1740C0E601432E
:102F1000481E81410022C9B210E7002E00D0F1E026
:102F2000621C94465205520D012A00DCA0E01B4AA7
:102F3000944500D1C5E06918A94292413F18524218
:102F4000D2194908D5070D4357086446A0E6134B2C
:102F50009C4200D0D9E69BE611001F3CE1400C00EA
:102F6000202B00D180E04021CB1A9A4015436A1EE5
:102F700095410027254300241FE763460200203BBC
:102F8000DA406346202B71D0402366469B1B984055
:102F90000143481E814111430022CFE6FF07000094
:102FA000FFFF7FFFFFFF0F80002C48D0CA4CA242DA
:102FB00000D1A2E07442A1468024240427434C4659
:102FC000382C00DDDBE01F2C00DD44E14E462024E0
:102FD000A41B3E00A640A246B0464C462E00E6404A
:102FE000B4464646644626435446A5406C1EA54159
:102FF00034002C434D46EF400D1B28E04A46434623
:103000004D461A4300D0A5E6002300240025DEE645
:103010001F2A5ADC66462022921B060096409146E3
:10302000B04662460E00D640424616434A4691409C
:103030004A1E9141020060463143C240E4E63C0032
:103040002C435AD0F443A146002C52D14D1BA94227
:103050008941C71B49427F1A14009A4675E69E4A69
:10306000944200D0C7E613E600227FE700208FE7F6
:10307000002C00D0C8E03B002B4300D10FE103003F
:103080000B4300D104E66918A9429B413F185B42FB
:10309000DF193B0200D41AE1904B0D001F4064463B
:1030A000F6E59A4689E63A002A43002C5CD1002ACC
:1030B00075D102000A4300D1CAE007000D009A460C
:1030C000E6E564460022002581E662460600203AD5
:1030D000D6406246B046202A00D1B7E0402266467C
:1030E000921B904001434246481E814111430022F9
:1030F0008AE6794CA24200D061E707000D00140077
:103100009A46C5E5002C41D13C002C4378D0F443CD
:10311000A146002C20D0704CA24271D04C46382CD5
:1031200000DDB2E01F2C00DDBCE02026341BA246EF
:103130003C005646B4404E46A0462C00F440A446FF
:10314000444666463443A4465446A54064466E1E33
:10315000B54125434C46E7406D188D4289413F18E3
:103160004942CF19140056E6002A2FD102000A4323
:1031700000D184E007000D009A46574C88E53D4396
:103180006F1EBD41ECB200270D1B60E7524CA242FE
:1031900036D0744280263604A1463743BEE702008B
:1031A0000A4300D174E56A1A90464545B6413A1A79
:1031B0007642921B9446120200D4F7E54D1BA942B9
:1031C0008941C71B49427F1A9A4661E502000A43BA
:1031D0003AD0ED087C072C438025FA082D032A42BB
:1031E00008D0C7082F4205D145072C003A009A465F
:1031F000C9080C43670FD200E5001743364C47E57A
:1032000007000D00140043E53A002A4343D00200B2
:103210000A4319D0ED087C072C438025FA082D03BA
:103220002A4207D0C6082E4204D147073C0032008C
:10323000C9080C43D700620FE50017439A46264C95
:1032400026E50022002544E5234C21E5002049E73E
:1032500000230025BBE54C463E00203CE6404C46A2
:10326000B446202C31D040244E46A61BB7403D43E7
:103270006C1EA54164462C4300270D1BE7E6802207
:1032800000231203144C0025A1E53D436F1EBD41F0
:103290000027EDB260E707000D000F4CF8E40700CF
:1032A0000D00F5E44E463C00203EF440A0464C465E
:1032B000202C0ED040244E46A41BA7403D436F1E39
:1032C000BD4144460027254346E70027CFE70D00D0
:1032D00073E50027F2E7C046FF070000FFFF7FFF0E
:1032E0000B0330B5134D1A0B4B005B0DC90F0024B7
:1032F000AB4211DD104CA34210DC80246403224356
:103300000E4CE41A1F2C0CDD0D48C31ADA401300D2
:103310005C42002900D11C00200030BD094BCC18B4
:10332000FAE7E040084CA44663449A401300034384
:10333000EEE7C046FE0300001D0400003304000059
:1033400013040000FFFFFF7FEDFBFFFF70B5051EBC
:1033500028D000F071F8154B154A1B1AD21A1F2AF3
:1033600016DD2C00134A0025D21A94405A05240376
:10337000240B520D002124030B0D240B1B052343AA
:103380000D4C1205234013435B002800590870BD03
:103390000B212C00081AC440954024035A05240B25
:1033A000520DE7E700220024E4E7C0461E040000B7
:1033B0003304000013040000FFFF0F808446101C3C
:1033C00062468C46191C634600E0C0461FB500F0FB
:1033D000F5F8002801D40021C8421FBD10B500F047
:1033E00049F84042013010BD10B500F0E7F8002860
:1033F00001DB002010BD012010BDC04610B500F05B
:10340000DDF8002801DD002010BD012010BDC04600
:1034100010B500F06FF8002801DC002010BD01207D
:1034200010BDC04610B500F065F8002801DA002094
:1034300010BD012010BDC0461C2101231B04984271
:1034400001D3000C10391B0A984201D3000A083935
:103450001B09984201D30009043902A2105C4018EC
:103460007047C04604030202010101010000000090
:1034700000000000F0B55F4656464D464446F0B4A5
:103480001F035C00DB0F9A46194B0E034D00C90F5A
:103490008046360B6D0D8B4691463F0B640D9D4269
:1034A00019D0134B9C421BD00123A54206D0180013
:1034B0003CBC90469946A246AB46F0BDBE42F6D112
:1034C000C845F4D1D34510D0002DF0D130430300CE
:1034D0005A1E9341EBE7310001230143E7D1E0E7B6
:1034E0003A430123002AE2D1DEE70023DFE7C046AA
:1034F000FF070000F0B55F46444656464D46F0B41F
:103500001F033C0B2C4F0E034D00A3465C0084466A
:10351000360B6D0DC90F9046640DDB0FBD422BD0ED
:10352000254FBC422ED0002D0ED1304307008146DE
:1035300078427841002C17D15F463A4314D14B466C
:103540000020002B0AD006E0002C02D1584602438E
:1035500001D099421AD00123484218433CBC9046FE
:103560009946A246AB46F0BD0028F2D058425841D9
:10357000012240421043F1E737000743D0D0022038
:103580004042EBE75F461743CDD0F8E7A542E2DCC7
:1035900005DB5E45DFD808D000205E45DED248421C
:1035A0004841012340421843D8E7C445D3D80020FE
:1035B000C445F4D3D2E7C046FF070000F0B55F462C
:1035C0004D4644465646F0B41C03240BA4462F4CEB
:1035D0000F034D005E00C90F80463F0B6D0D8B46FB
:1035E0009146760DDB0FA54220D0284CA64222D072
:1035F000002D12D1384344424441002E20D0002CEB
:103600000DD05C42634101245B421C4320003CBC62
:1036100090469946A246AB46F0BD002E17D05B45BA
:1036200019D05B465C4201231C43EFE739000224BA
:103630000143EBD1D9E7614602241143E6D1D7E734
:1036400061460A43DBD100240028DFD0E9E7614668
:103650000A43E4D1E5E7B54203DD01225C421443AD
:10366000D4E7B542CDDB6745DBD809D000246745F8
:10367000CCD259464C426141012449420C43C5E732
:10368000C845CED80024C845F3D3BFE7FF070000E4
:10369000084B10B50400002B02D0002100E000BF51
:1036A000054B1868836A002B00D098472000FCF770
:1036B00037FFC04600000000D8490008F7B58A89E6
:1036C00005000C0013075AD44B68002B02DC0B6C6E
:1036D000002B19DDE76A002F16D000232E682B601F
:1036E00080235B011A4001D0606D14E00123216A40
:1036F0002800B847431C0ED12B68002B0BD01D2B84
:1037000001D0162B02D12E6000205AE04022A3895E
:103710001343A38155E0A3895B0706D56368C01AEC
:10372000636B002B01D0236CC01A00230200216AB6
:103730002800E76AB847A389421C06D129681D29D9
:103740003AD8204ACA40D20736D5002262602269A0
:103750002260DB0405D5431C02D12B68002B00D16D
:103760006065616B2E600029CED0230044339942FE
:1037700002D0280000F080F90020606321E00F698A
:10378000002FC1D00B680F60DB1B01930023920751
:1037900000D14B69A36003E0019B3F181B1A019302
:1037A000019B002BB0DD019B3A00216A2800A66A2C
:1037B000B0470028F0DCA389402201201343A381F5
:1037C0004042FEBD010040200B6970B505000C00B1
:1037D000002B01D100201CE0002804D08369002BBD
:1037E00001D100F073F80B4B9C4201D16C6808E0EA
:1037F000094B9C4201D1AC6803E0084B9C4200D1CC
:10380000EC680C22A35E002BE4D021002800FFF717
:1038100055FF70BD7849000898490008B84900086C
:1038200010B5011E05D1054B0549186800F0C0F818
:1038300003E0044B1868FFF7C7FF10BDD849000824
:10384000C93700082801002010B5024900F0B0F87F
:1038500010BDC046C9370008002310B5040003603E
:103860004360836081814366C281036143618361F8
:10387000190008225C3000F0F7F8054B24626362FF
:10388000044BA362044BE362044B236310BDC046A8
:10389000F53B00081D3C0008553C0008813C000831
:1038A00070B568254B1E5D430E002900743100F091
:1038B0002FF9041E08D000212A00016046600C3058
:1038C000A060683200F0D0F8200070BD836913B5A5
:1038D0000400002B28D18364C3640365134B144A8E
:1038E0001B6882620193984201D101238361200009
:1038F00000F020F86060200000F01CF8A0602000BC
:1039000000F018F80022E06004216068FFF7A4FFCF
:1039100001220921A068FFF79FFF02221221E0681F
:10392000FFF79AFF0123A36113BDC046D8490008E1
:1039300049380008F8B51D4B06001D68AB69002B1F
:1039400002D12800FFF7C2FF4835AC686B68013B25
:1039500005D40C22A75E002F10D06834F7E72B683F
:10396000002B01D02D68F0E704213000FFF798FF0D
:1039700028600028F6D10C23336016E001232000D4
:103980005B42E3810233A38167662760A7606760BB
:1039900027616761A7615C300822390000F064F894
:1039A00020006763A763A764E764F8BDD8490008EF
:1039B000F7B504000700002601914834002C16D00A
:1039C0006368A5680093009B013B00930DD4AB890D
:1039D000012B08D90E22AB5E013304D02900380038
:1039E000019B984706436835EDE72468E6E7300019
:1039F000FEBD00000E4B70B500251E000D4CE41AF4
:103A0000A410A54204D0AB00F35898470135F8E75D
:103A100000F0E4FC084B00251E00084CE41AA4103A
:103A2000A54204D0AB00F35898470135F8E770BDC4
:103A30002C0100202C0100202C010020340100204A
:103A4000C9B28218904204D003788B4202D0013070
:103A5000F8E700207047002310B59A4203D0CC5CF1
:103A6000C4540133F9E710BD03008218934202D019
:103A700019700133FAE7704770B50500002944D08A
:103A80000C1F2368002B00DAE4182800FCF75CFD0B
:103A90001E4A13681100002B02D16360146031E0EC
:103AA000A3420DD92268A018834203D118685B682D
:103AB0008218226063600C6024E0A24203D81300E5
:103AC0005A68002AF9D11E689819A0420BD12168C2
:103AD000711858181960824214D110685268411840
:103AE00019605A600EE0A04202D90C232B6009E055
:103AF00021686018824203D1106852684118216021
:103B000062605C602800FCF723FD70BDD4020020D9
:103B1000032370B5CD1C9D43083506000C2D01D242
:103B20000C2501E0002D01DBA94202D90C233360F2
:103B300048E03000FCF708FD234B1C681A00210008
:103B4000002913D00B685B1B0DD40B2B02D90B6023
:103B5000CC181EE08C4202D1636813601AE04B68F7
:103B600063600C0016E00C004968E9E7174C236815
:103B7000002B03D1300000F02BF82060290030002A
:103B800000F026F8431C18D00323C41C9C43A04219
:103B90000DD125603000FCF7DBFC200007220B3044
:103BA000231D9043C31A0ED05A42E2500BE0211A53
:103BB000300000F00DF8431CEBD10C2330003360D3
:103BC000FCF7C6FC002070BDD4020020D00200200B
:103BD000002370B5064C050008002360FCF78CFC40
:103BE000431C03D12368002B00D02B6070BDC0465E
:103BF0009C03002070B50C000E25495F00F094FB7B
:103C0000002803DB636D1B18636503E0A289024B88
:103C10001340A38170BDC046FFEFFFFFF8B51F0042
:103C20008B8905000C001600DB0505D50E23C95E47
:103C30000022022300F074F8A289054B28001340EB
:103C4000A38132000E23E15E3B0000F043F8F8BD93
:103C5000FFEFFFFF70B50C000E25495F00F060F824
:103C6000A389421C03D1054A1340A38104E08022AA
:103C700052011343A381606570BDC046FFEFFFFF93
:103C800010B50E23C95E00F039F810BD30B59BB0F9
:103C90000091049108496D46029105910121822409
:103CA0004942E981A4006946AC8100F0AFF80023E5
:103CB000009A13701BB030BDFFFFFF7F10B51300DB
:103CC0000A00010002480068FFF7E0FF10BDC0468F
:103CD0002801002070B50500080011000022064CE4
:103CE00022601A00FCF798FB431C03D12368002BC9
:103CF00000D02B6070BDC0469C030020002370B52F
:103D0000064C050008002360FCF770FB431C03D140
:103D10002368002B00D02B6070BDC0469C030020A0
:103D200070B50500080011000022064C22601A0040
:103D3000FCF7C0FB431C03D12368002B00D02B6091
:103D400070BDC0469C030020F0B58E6885B00700AA
:103D50000C00039201939E4243D890238A89DB0092
:103D60001A423ED003250969236801985B1A029321
:103D700063695D43EB0F5D19029B6D1001331B18E6
:103D8000AB4200D91D00530510D529003800FFF7BC
:103D9000BFFE061E14D0029A2169FFF75CFEA289BD
:103DA000194B134080221343A38112E02A003800EC
:103DB00000F0E3FA061E0CD121693800FFF75CFE23
:103DC0000C23402201203B60A38940421343A3817E
:103DD00017E0029B2661F61826606561019EED1AC8
:103DE000A560019BB34200D21E00320003992068F7
:103DF00000F0AEFA0020A3689B1BA36023689E1905
:103E0000266005B0F0BDC0467FFBFFFFF0B59FB058
:103E1000029005938B890F0016001B0610D50B69C5
:103E2000002B0DD14021FFF773FE38603861002868
:103E300004D10C23029A01381360D8E040237B613F
:103E4000002306AD6B6120336B761033AB76340004
:103E50002378002B03D1A31B049312D003E0252B5E
:103E6000F9D00134F4E7A31B320039000298FFF7C0
:103E70006BFF431C00D1B4E06A69049B9446634421
:103E80006B612378002B00D1ABE00122002352426A
:103E90006A6002A95432521801342B60EB60AB60A7
:103EA0001370AB65534E217805223000FFF7C8FD33
:103EB000002807D00123801B83402A680134134364
:103EC0002B60EFE72B68DA0604D55322202102A8E5
:103ED000121811701A0704D553222B2102A81218A8
:103EE000117022782A2A03D0099B00200A210EE0B3
:103EF000059A111D12680591002A01DB099204E060
:103F00005242EA60022213432B6001340BE0227814
:103F1000303A092A04D84B4301349B180120F6E7B4
:103F2000002800D0099323782E2B1ED163782A2BEA
:103F30000AD1059B02341A1D1B680592002B01DA79
:103F400001235B42079310E000230A201A0001348A
:103F50006B6021783039092904D842430134521862
:103F60000123F6E7002B00D00792234E217803228D
:103F70003000FFF765FD002806D04023801B8340FA
:103F80002A68013413432B60217806221B48661CE3
:103F90002976FFF755FD002812D0194B002B06D1CA
:103FA0000722059B073393430833059314E005ABC1
:103FB00000933A00134B2900029800E000BF07E08D
:103FC00005AB00933A000F4B2900029800F08AF8E5
:103FD0000390039B013304D06B69039A9B186B61B8
:103FE00035E7BB890B985B0601D5012040421FB025
:103FF000F0BDC046DC490008E2490008E649000877
:1040000000000000493D0008F7B5170001938A68D9
:104010000B6900900C00934200DA130022003B6011
:1040200043321278002A01D001333B6023689B069B
:1040300002D53B6802333B60062523681D401ED035
:10404000230043331B785A1E9341226892061CD5E5
:104050003020E1184331087021005A1C453109789D
:10406000A2184332023311700FE0220001231932EB
:1040700001990098089EB047431C0ED00135E368B3
:104080003A689B1A9D42F0DBDAE72200019943323D
:104090000098089DA847431C02D10120404220E01F
:1040A00006232068E1683A6803400025042B03D109
:1040B0008D1AEB43DB171D40A3682269934201DD93
:1040C0009B1AED180027BD420AD0220001231A32A4
:1040D00001990098089EB047431CDED00137F2E7F3
:1040E0000020FEBDF0B58BB006920A004332079364
:1040F000059004920A7E0C00109B6E2A00D1ABE062
:1041000011D8632A22D009D8002A00D1B5E0582A54
:1041100000D0C5E045310A70814A4FE0642A1DD0C5
:10412000692A1BD0BCE0732A00D1AAE009D86F2A03
:1041300029D0702A00D0B3E0202209680A43226007
:1041400037E0752A1FD0782A33D0A9E00E001A680C
:104150004236111D196013683370A4E021681A6893
:10416000080606D4490604D5111D19600023D55E42
:1041700002E0111D19601568002D3BDA2D23049A09
:104180006D42137036E021681A68080606D44906A5
:1041900004D51568111D1960ADB202E0111D19603A
:1041A00015685F4B227E039308276F2A1DD00A27CC
:1041B0001BE022007821453211705A4A1968039297
:1041C000081D226818600D68100602D4500600D53C
:1041D000ADB2D30702D520231A4322601027002D49
:1041E00003D1202322689A43226023000022433314
:1041F0001A7002E00A274A4B03936368A360002BFE
:1042000009DB0422216891432160002D05D1049E21
:10421000002B11D07BE0002D79D0049E28003900BE
:10422000FDF720FE039B013E5B5C280033703900E4
:10423000FDF792FD051EF1D1082F09D12368DB0798
:1042400006D563682269934202DC3023013E337055
:10425000049B9B1B23612BE009681A68080607D49E
:10426000490605D5111D19601368A28A1A8004E059
:10427000111D1960136862691A600023049E23618E
:1042800016E01A68111D1960166800216268300076
:10429000FFF7D6FB002801D0801B6060636803E055
:1042A000260042363270012323610023049A1370E2
:1042B000079B09AA00932100069B0598FFF7A4FE1F
:1042C000431C02D10120404227E0236932000699B5
:1042D0000598079DA847431CF4D0236800259B0739
:1042E0000FD4099BE068984217DA180015E0220005
:1042F0000123193206990598079EB047431CE1D067
:104300000135E368099A9B1A9D42F0DBE9E7260034
:10431000039B42361B7833708EE70BB0F0BDC0466E
:10432000ED490008FE49000870B5050008001100BD
:104330000022064C22601A00FCF798F8431C03D1B7
:104340002368002B00D02B6070BDC0469C0300206A
:1043500010B5884202D98B18984201D3002305E09A
:104360009B1A013A08D3995C8154FAE7934203D02F
:10437000CC5CC4540133F9E710BDF8B506000C005D
:104380001500002904D11100FFF7C2FB040018E05A
:10439000002A03D1FFF770FB2C0012E000F013F8A5
:1043A00085420ED929003000FFF7B2FB071E07D067
:1043B00021002A00FFF74FFB21003000FFF75CFBD4
:1043C0003C002000F8BD0B1F1A68101F002A04DAF9
:1043D000891804390B68D01804387047F8B5C046FE
:1043E000F8BC08BC9E467047F8B5C046F8BC08BC8F
:1043F0009E4670470000000001020304010203040E
:104400000607080904000000020000000801040279
:104410000800000000000000000102030406070875
:1044200009030406080C10182030433A5C436F6FF0
:10443000436F785C436F4944455F5632426574610F
:104440005C776F726B73706163655C4E75636C65EE
:104450006F5F50726A5C6D6265645C54415247459F
:10446000545F4E55434C454F5F4C30353352385CAA
:104470005441524745545F53544D5C544152474553
:10448000545F53544D33324C302F6770696F5F6FF8
:10449000626A6563742E68006F626A2D3E70696E91
:1044A00020213D202850696E4E616D65294E4300E4
:1044B00043616E6E6F7420696E697469616C697AAC
:1044C000652055415254006F626A2D3E75617274C9
:1044D00020213D2028554152544E616D65294E439F
:1044E00000433A5C4A656E6B696E735C776F726B02
:1044F00073706163655C6D6265642D322D627569F0
:104500006C642D6C6962726172795C68616C5C7458
:104510006172676574735C68616C5C5441524745B5
:10452000545F53544D5C5441524745545F53544D6E
:1045300033324C305C73657269616C5F6170692EF7
:1045400063006D6265642061737365727461746980
:104550006F6E206661696C65643A2025732C206655
:10456000696C653A2025732C206C696E6520256482
:10457000200A00696E746572727570745F656E6191
:10458000626C655F636F756E746572203C2055497F
:104590004E5433325F4D415800433A5C4A656E6B6E
:1045A000696E735C776F726B73706163655C6D626B
:1045B00065642D322D6275696C642D6C696272615F
:1045C00072795C68616C5C636F6D6D6F6E5C6D625F
:1045D00065645F637269746963616C2E6300696E00
:1045E00074657272757074735F64697361626C650F
:1045F0006400433A2F4A656E6B696E732F776F7252
:104600006B73706163652F6D6265642D322D627509
:10461000696C642D6C6962726172792F2E627569A2
:104620006C642F6D6265642F5441524745545F4E50
:1046300055434C454F5F4C30353352382F5441521F
:104640004745545F53544D2F5441524745545F538F
:10465000544D33324C302F6770696F5F6F626A65FB
:1046600063742E6800636F756C64206E6F742070C5
:10467000696E6F75740070696E6D6170206D69731D
:104680002D6D617463680070696E6D6170206E6F6E
:104690007420666F756E6420666F72207065726933
:1046A00070686572616C0070696E6D6170206E6F0C
:1046B0007420666F756E6420666F722066756E6317
:1046C00074696F6E00000000A9170008C117000888
:1046D000A5180008BD18000841180008C8460008C1
:1046E000C802002003000000004400401302000044
:1046F0000A00000000380140130200000F00000013
:104700000044004013020000170000000038014080
:10471000130000001B0000000048004013020000CE
:104720002500000000480040130100002B0000009D
:104730000048004013000000FF000000FFFFFFFFE3
:1047400000000000020000000044004013020000CE
:104750000900000000380140130200000E000000B4
:104760000044004013020000160000000038014021
:10477000130000001A00000000480040130200006F
:104780002400000000480040130100002A0000003F
:104790000048004013000000FF000000FFFFFFFF83
:1047A00000000000433A5C4A656E6B696E735C778B
:1047B0006F726B73706163655C6D6265642D322D21
:1047C0006275696C642D6C6962726172795C686192
:1047D0006C5C746172676574735C68616C5C544195
:1047E000524745545F53544D5C5441524745545FC2
:1047F00053544D33324C305C6770696F5F61706940
:104800002E630050696E6D6170206572726F723A2E
:104810002077726F6E6720706F7274206E756D6294
:1048200065722E00433A5C4A656E6B696E735C7705
:104830006F726B73706163655C6D6265642D322DA0
:104840006275696C642D6C6962726172795C686111
:104850006C5C746172676574735C68616C5C544114
:10486000524745545F53544D5C5441524745545F41
:1048700053544D33324C305C70696E6D61702E63F1
:104880000000000000000000010000001100000016
:1048900002000000120000000300000000001110E0
:1048A0000000211000003110000012100000221042
:1048B0000000321000000010C81F0008261F00086A
:1048C000261F0008241F0008BA1F0008BA1F00088E
:1048D000B01F0008241F0008BA1F0008B01F0008FE
:1048E000BA1F0008241F0008C01F0008C01F0008CE
:1048F000C01F00084A20000808230008D62100082D
:10490000DC220008CC210008DC220008E622000896
:10491000DC220008CC210008D6210008D62100089E
:10492000E6220008CC210008C2210008C2210008AC
:10493000C22100083825000834290008F42700089F
:10494000F4270008F22700080C2900080C290008A9
:10495000FE280008F22700080C290008FE2800089D
:104960000C290008F227000814290008142900085F
:1049700014290008142B00080000000000000000AB
:104980000000000000000000000000000000000027
:104990000000000000000000000000000000000017
:1049A0000000000000000000000000000000000007
:1049B00000000000000000000000000000000000F7
:1049C00000000000000000000000000000000000E7
:1049D0000000000000000000C8000020232D302B44
:1049E0002000686C4C0065666745464700303132F0
:1049F0003334353637383941424344454600303147
:104A000032333435363738396162636465660000A5
:044A100000000000A2
:084A14000CB7FF7F0100000058
:104A1C00A00300200048E8010000000078490008CD
:104A2C0098490008B8490008000000000000000088
:104A3C000000000000000000DF440008000000003F
:104A4C00000000000000000000000000000000005A
:104A5C00000000000000000000000000000000004A
:104A6C00000000000000000000000000000000003A
:104A7C000000000000000000C8000020E900000851
:0C4A8C0081150008C100000800000000B7
:040000050800055991
:00000001FF
